:100000000C9461000C9473000C9473000C947300B6
:100010000C9473000C9473000C9473000C94730094
:100020000C9473000C9473000C9473000C94730084
:100030000C9473000C9473000C9473000C94730074
:100040000C9469010C9473000C9473000C9473006D
:100050000C9473000C9473000C9473000C94730054
:100060000C9473000C94730000000000240027001F
:100070002A0000000000250028002B0000000000DE
:1000800023002600290004040404040404040202DA
:100090000202020203030303030301020408102007
:1000A0004080010204081020010204081020000012
:1000B0000008000201000003040700000000000027
:1000C000000011241FBECFEFD8E0DEBFCDBF21E07E
:1000D000A0E0B1E001C01D92A930B207E1F70E9493
:1000E000B3010C943B030C940000833081F028F49E
:1000F000813099F08230A1F008958730A9F08830DE
:10010000B9F08430D1F4809180008F7D03C080915C
:1001100080008F7780938000089584B58F7702C028
:1001200084B58F7D84BD08958091B0008F7703C022
:100130008091B0008F7D8093B00008951F93CF937E
:10014000DF93282F30E0F901E255FF4F8491F90148
:10015000E656FF4FD491F901EA57FF4FC491CC23E3
:10016000C9F0162F81110E947500EC2FF0E0EE0F00
:10017000FF1FEE58FF4FA591B4918FB7F89411115E
:1001800005C09C91ED2FE095E92302C0EC91ED2B89
:10019000EC938FBFDF91CF911F910895CF93DF93A1
:1001A00090E0FC01E656FF4F2491FC01EA57FF4F17
:1001B0008491882361F190E0880F991FFC01E85930
:1001C000FF4FC591D491FC01EE58FF4FA591B4911A
:1001D000611109C09FB7F894888120958223888394
:1001E000EC912E230BC0623061F49FB7F8943881F4
:1001F000822F809583238883EC912E2B2C939FBF95
:1002000006C08FB7F894E8812E2B28838FBFDF912B
:10021000CF9108953FB7F894809105019091060120
:10022000A0910701B091080126B5A89B05C02F3FFA
:1002300019F00196A11DB11D3FBFBA2FA92F982F0C
:100240008827820F911DA11DB11DBC01CD0142E087
:10025000660F771F881F991F4A95D1F708958F92CF
:100260009F92AF92BF92CF92DF92EF92FF926B017B
:100270007C010E940A014B015C01C114D104E1041C
:10028000F104F1F00E940A01DC01CB0188199909FF
:10029000AA09BB09883E9340A105B10570F321E08E
:1002A000C21AD108E108F10888EE880E83E0981E92
:1002B000A11CB11CC114D104E104F10419F7DDCF74
:1002C000FF90EF90DF90CF90BF90AF909F908F9076
:1002D00008951F920F920FB60F9211242F933F9300
:1002E0008F939F93AF93BF938091010190910201EF
:1002F000A0910301B09104013091000123E0230F8C
:100300002D3720F40196A11DB11D05C026E8230F4D
:100310000296A11DB11D20930001809301019093CD
:100320000201A0930301B093040180910501909113
:100330000601A0910701B09108010196A11DB11D10
:100340008093050190930601A0930701B0930801E3
:10035000BF91AF919F918F913F912F910F900FBEC1
:100360000F901F901895789484B5826084BD84B5F1
:10037000816084BD85B5826085BD85B5816085BDA0
:1003800080916E00816080936E0010928100809158
:1003900081008260809381008091810081608093E0
:1003A0008100809180008160809380008091B10005
:1003B00084608093B1008091B00081608093B00030
:1003C00080917A00846080937A0080917A008260C4
:1003D00080937A0080917A00816080937A00809186
:1003E0007A00806880937A001092C10062E08CE00D
:1003F0000E94CE0061E08DE00E94CE0061E088E0C6
:100400000E94CE0061E089E00E94CE0061E08AE0B7
:100410000E94CE0061E087E00E94CE0061E086E0AD
:100420000E94CE0061E085E00E94CE0061E084E0A1
:100430000E94CE0061E083E00E94CE0061E08DE08A
:100440000E949E0061E088E00E949E0061E089E0D9
:100450000E949E0061E08AE00E949E0061E087E0C9
:100460000E949E0061E086E00E949E0061E085E0BF
:100470000E949E0061E084E00E949E0061E083E0B3
:100480000E949E000AEB10E096EAE92E90E0F92E19
:1004900022E9C22E20E0D22E37EBA32E30E0B32E7D
:1004A000C4E6D0E044E6742E50E0852E50E0952E50
:1004B000F8018491F7015490F6016490662071F080
:1004C00081110E947500E62DF0E0EE0FFF1FE45849
:1004D000FF4FA591B4918C91582251F760E872E0DA
:1004E00080E090E00E942F0160E08DE00E949E007D
:1004F00068EE73E080E090E00E942F0161E08DE003
:100500000E949E0060E088E00E949E0068EE73E01A
:1005100080E090E00E942F0161E088E00E949E0050
:1005200061E089E00E94CE00F5018491833051F4AE
:1005300080918000806880938000D0938900C09370
:1005400088000AC0843008F076C0813009F067C0A6
:1005500084B5806884BD77BC61E08AE00E94CE00EB
:1005600060E08AE00E949E0068EE73E080E090E028
:100570000E942F0161E089E00E949E0061E08AE014
:100580000E949E0060E087E00E949E0068EE73E09B
:1005900080E090E00E942F0161E087E00E949E00D1
:1005A00060E086E00E949E0068EE73E080E090E0EC
:1005B0000E942F0161E086E00E949E0060E085E0DD
:1005C0000E949E0068EE73E080E090E00E942F01A0
:1005D00061E085E00E949E0060E084E00E949E0051
:1005E00068EE73E080E090E00E942F0161E084E01B
:1005F0000E949E0060E083E00E949E0068EE73E02F
:1006000080E090E00E942F0161E083E00E949E0064
:100610008114910409F44CCF0E94000049CF82302C
:1006200029F484B5806284BD78BC96CF60E089E00F
:100630000E949E0091CF873041F48091B000806885
:100640008093B0007092B30087CF883041F48091DE
:10065000B00080628093B0007092B4007DCF84308F
:1006600029F780918000806280938000D0938B0076
:0A067000C0938A0071CFF894FFCF09
:00000001FF
